:100000000C9472000C949A000C949A000C949A0030
:100010000C949A000C949A000C949A000C949A00F8
:100020000C949A000C949A000C949A000C949A00E8
:100030000C949A000C949A000C949A000C949A00D8
:100040000C94EB070C949A000C94B9070C9493074A
:100050000C949A000C949A000C949A000C949A00B8
:100060000C949A000C949A000000000024002700D1
:100070002A004661696C656420746F207265616452
:1000800020746865204448542073656E736F722134
:100090000000000000250028002B000000000800E0
:1000A000020100000304070000000000000000003F
:1000B00000000023002600290004040404040404B2
:1000C0000402020202020203030303030301020407
:1000D00008102040800102040810200102040810CA
:1000E0002000350811241FBECFEFD8E0DEBFCDBF02
:1000F00011E0A0E0B1E0E6E2F9E102C005900D9266
:10010000AC32B107D9F721E0ACE2B1E001C01D92F9
:10011000A53EB207E1F710E0C2E7D0E004C02197A6
:10012000FE010E948B0CC137D107C9F70E948208DB
:100130000C94910C0C940000CF92DF92EF92FF92FE
:10014000CF93DF93C82F8091D8018C3009F45EC023
:1001500038F48B30F1F060E070E080EC9FE74FC046
:1001600085518230C0F7D091D4016D2F70E0762F89
:10017000662766277F778091D501682B90E080E025
:100180000E94E50A2DEC3CEC4CEC5DE30E949C0BDC
:1001900059C06091D40170E090E080E00E94E50ACF
:1001A0006B017C01D091D501D7FF0AC0AC019B0146
:1001B00060E070E080E89FEB0E94D2096B017C0157
:1001C000DF706D2F70E090E080E00E94E70A2DEC78
:1001D0003CEC4CEC5DE30E949C0BA70196010E9455
:1001E000D309CC2361F026E636E646EE5FE30E94B3
:1001F0009C0B20E030E040E052E40E94D309DF9104
:10020000CF91FF90EF90DF90CF900895D091D401DF
:100210006D2F70E090E080E00E94E50A6B017C01A8
:100220006091D5016F7070E090E080E00E94E70A75
:100230002DEC3CEC4CEC5DE30E949C0BA70196017D
:100240000E94D309D7FFCDCF9058CBCFCF92DF926A
:10025000EF92FF92CF93DF93B091D901A0E081118B
:10026000AB2F8091DA0190E0880F991FAC014155C6
:100270005F4FC090DF01D090E001E090E101F0908D
:10028000E20130E020E0FA01C591D491E881B901A2
:1002900090E080E0EB23EA130AC02F5F3F4F6C151C
:1002A0007D058E059F0578F36FEF7FEFCB01DF9122
:1002B000CF91FF90EF90DF90CF900895AF92BF92D3
:1002C000CF92DF92EF92FF920F931F93CF93DF9322
:1002D0006C017B018B01040F151FEB015E01AE1851
:1002E000BF08C017D10759F06991D601ED91FC9173
:1002F0000190F081E02DC6010995892B79F7C501A0
:10030000DF91CF911F910F91FF90EF90DF90CF90F1
:10031000BF90AF900895FC01538D448D252F30E0A0
:10032000842F90E0821B930B541710F0CF96089502
:1003300001970895FC01918D828D981761F0A28D2F
:10034000AE0FBF2FB11D5D968C91928D9F5F9F73F5
:10035000928F90E008958FEF9FEF0895FC01918DAB
:10036000828D981731F0828DE80FF11D858D90E018
:1003700008958FEF9FEF0895FC01918D228D892FB5
:1003800090E0805C9F4F821B91098F73992708959D
:1003900085E391E00E94BC0121E0892B09F420E073
:1003A000822F089580E090E0892B29F00E94C801F7
:1003B00081110C9400000895FC01A48DA80FB92FA1
:1003C000B11DA35ABF4F2C91848D90E001968F737D
:1003D0009927848FA689B7892C93A089B1898C919C
:1003E000837080648C93938D848D981306C00288EB
:1003F000F389E02D80818F7D80830895EF92FF92B5
:100400000F931F93CF93DF93EC0181E0888F9B8D37
:100410008C8D98131AC0E889F989808185FF15C0F1
:100420009FB7F894EE89FF896083E889F989808114
:100430008370806480839FBF81E090E0DF91CF91E3
:100440001F910F91FF90EF900895F62E0B8D10E005
:100450000F5F1F4F0F731127E02E8C8D8E110CC074
:100460000FB607FCFACFE889F989808185FFF5CFBF
:10047000CE010E94DC01F1CFEB8DEC0FFD2FF11DC1
:10048000E35AFF4FF0829FB7F8940B8FEA89FB89FC
:1004900080818062CFCFCF93DF93EC01888D88235A
:1004A000B9F0AA89BB89E889F9898C9185FD03C0D7
:1004B000808186FD0DC00FB607FCF7CF8C9185FFBC
:1004C000F2CF808185FFEDCFCE010E94DC01E9CF24
:1004D000DF91CF910895CF93DF9390E0FC01E35338
:1004E000FF4F249187549F4FFC0184918823D1F0C2
:1004F00090E0880F991FFC01E859FF4FA591B49136
:10050000FC01EF56FF4FC591D491623071F49FB753
:10051000F8943C91822F809583238C93E8812E2B35
:1005200028839FBFDF91CF9108958FB7F894EC9106
:100530002E2B2C938FBFF6CF3FB7F89480912D01CF
:1005400090912E01A0912F01B091300126B5A89B6A
:1005500005C02F3F19F00196A11DB11D3FBFBA2F55
:10056000A92F982F8827BC01CD01620F711D811D15
:10057000911D42E0660F771F881F991F4A95D1F79A
:1005800008958F929F92AF92BF92CF92DF92EF9297
:10059000FF924B015C010E949C026B017C010E9456
:1005A0009C026C197D098E099F09683E7340810584
:1005B0009105A8F321E0821A9108A108B10888EEFC
:1005C000C80E83E0D81EE11CF11C81149104A10423
:1005D000B10429F7FF90EF90DF90CF90BF90AF90DC
:1005E0009F908F9008958F929F92AF92BF92EF92BB
:1005F000FF920F931F93CF93DF93CDB7DEB7C05415
:10060000D1400FB6F894DEBF0FBECDBF2FB7F89420
:100610008091310190913201A0913301B091340168
:100620002FBF4091DB015091DC016091DD017091A1
:10063000DE018C019D01041B150B260B370BB90144
:10064000A801403D574061057105A0F48091E30188
:10065000C05CDE4F0FB6F894DEBF0FBECDBFDF919A
:10066000CF911F910F91FF90EF90BF90AF909F900F
:100670008F9008958093DB019093DC01A093DD01BE
:10068000B093DE011092D6011092D5011092D401E0
:100690001092D3011092D20162E08091D7010E94A2
:1006A0006B0261E070E080E090E00E94C10261E0D6
:1006B0008091D7010E946B028091D70190E0FC01EC
:1006C000E556FF4F2491FC01E353FF4F3491FC01A9
:1006D000E754FF4FE491EE23D9F0222359F0233061
:1006E00009F44BC008F03EC0213009F44CC0223060
:1006F00009F44DC0F0E0EE0FFF1FEF56FF4FA5913C
:10070000B4918FB7F894EC9130953E233C938FBF12
:100710008091D8018551823008F046C08BE291E18A
:100720000197F1F762E08091D7010E946B028091FE
:10073000E40190E08230910538F0880F991F880F0E
:10074000991F05970197F1F7F89480E00E94260120
:100750006F3F7F4F8F4F9F4F71F51092E301789459
:1007600080E076CF2730B1F02830D1F0243009F086
:10077000C1CF809180008F7D03C0809180008F77F2
:1007800080938000B7CF84B58F7784BDB3CF84B515
:100790008F7DFBCF8091B0008F778093B000AACF80
:1007A0008091B0008F7DF9CF64E170E080E090E04F
:1007B0000E94C102B7CF81E00E9426016F3F7F4FA8
:1007C0008F4F9F4F51F2CE0101967C015E019FEB4E
:1007D000A91A9EEFB90A870180E00E942601F8015C
:1007E000608371838283938381E00E942601F801F4
:1007F0006483758386839783085F1F4FA016B106B5
:1008000059F7789430E020E0F70180809180A28051
:10081000B3804481558166817781FFEF8F169F06F3
:10082000AF06BF0631F04F3F0FEF5007600770076C
:1008300019F41092E30194CFF90183E0F595E7955F
:100840008A95E1F7EE52FE4F8081880F8416950657
:10085000A606B70618F180832F5F3F4F18E0E10E20
:10086000F11C2832310581F64091D6012091D20148
:100870008091D301280F3327331F8091D401280F93
:10088000311D8091D501820F932F911D9927481713
:10089000190679F681E08093E301DACE8160DBCF3F
:1008A000FC0101900020E9F73197AF01481B590B7B
:1008B000BC0185E391E00C945E018F929F92AF9210
:1008C000BF920F931F93CF93DF93CDB7DEB7A1975E
:1008D0000FB6F894DEBF0FBECDBF19A2423008F4A8
:1008E0004AE08E010F5D1F4F842E912CB12CA12C5C
:1008F000A50194010E94690CE62FB901CA01EA30F2
:10090000F4F4E05DD801EE938D01232B242B252BED
:1009100079F790E080E0109719F0CD010E94500423
:10092000A1960FB6F894DEBF0FBECDBFDF91CF9179
:100930001F910F91BF90AF909F908F900895E95CA9
:10094000E1CF4F925F926F927F928F929F92AF9280
:10095000BF92CF92DF92EF92FF920F931F93CF93AC
:100960006B017C01742EAC019B010E944F0C88230B
:1009700099F082E191E0CF911F910F91FF90EF905C
:10098000DF90CF90BF90AF909F908F907F906F90AF
:100990005F904F900C94500446015701E894B7F8CB
:1009A0002FEF3FEF4FE75FE7C501B4010E944F0C07
:1009B00081110DC02FEF3FEF4FE75FE7C501B40195
:1009C0000E943F0A18161CF486E191E0D4CF2FEF65
:1009D0003FEF4FE75FE4C701B6010E94970B18167F
:1009E0001CF48AE191E0C7CF2FEF3FEF4FE75FECB8
:1009F000C701B6010E943F0A87FDF3CF20E030E037
:100A0000A901C701B6010E943F0A10E000E087FF7C
:100A10000AC06DE285E391E00E94FE018C01F7FAC5
:100A2000F094F7F8F094C0E060E070E080E09FE3BD
:100A30007C1641F020E030E040E251E40E94440A9C
:100A4000CF5FF6CFA70196010E94D3092B013C018D
:100A50000E94B60A4B015C014AE00E945D047C01E1
:100A6000E00EF11ECC23C1F1C501B4010E94E50ADC
:100A70009B01AC01C301B2010E94D2094B015C0190
:100A80006EE285E391E00E94FE01E80EF91EC1507E
:100A900018F120E030E040E251E4C501B4010E94C9
:100AA0009C0B2B013C010E94B60A4B01B12CA12CDE
:100AB0004AE0C501B4010E945D04E80EF91EC501BB
:100AC000B4010E94E50A9B01AC01C301B2010E947E
:100AD000D2094B015C01DBCFC701CF911F910F9170
:100AE000FF90EF90DF90CF90BF90AF909F908F904E
:100AF0007F906F905F904F9008954F925F926F92AA
:100B00007F928F929F92AF92BF92CF92DF92EF929D
:100B1000FF920F93CF93DF93CDB7DEB728970FB631
:100B2000F894DEBF0FBECDBF6B017C0149015A01B5
:100B300001110EC026E636E646EE5FE30E949C0BEE
:100B400020E030E040E052E40E94D3096B017C01D8
:100B500020E030E048E852E4C701B6010E94D20923
:100B60002AE939E949E95FE30E949C0B2B013C012A
:100B700020E030E044E752E4C701B6010E94D30907
:100B80009B01AC01C301B2010E94D3092B013C01BE
:100B900022E133E840EC5DE3C501B4010E949C0B07
:100BA0009B01AC01C301B2010E94D30920E030E0F7
:100BB00040E05FE30E949C0B2B013C0120E030E011
:100BC0004EE952E40E94970B18160CF023C1A701BE
:100BD0009601C701B6010E949C0B2B013C01A501A7
:100BE0009401C501B4010E949C0B6D837E838F83A9
:100BF000988721E133E243E050E4C701B6010E9447
:100C00009C0B29E134E849E252E40E94D20969834D
:100C10007A838B839C8326E13BE442E251E4C50165
:100C2000B4010E949C0B9B01AC0169817A818B818C
:100C30009C810E94D30969837A838B839C8328E4F7
:100C400036E246E65EEBC701B6010E949C0BA501A9
:100C500094010E949C0B9B01AC0169817A818B817C
:100C60009C810E94D30969837A838B839C8320EEC5
:100C70003FE040EE5BEBC301B2010E949C0B9B0185
:100C8000AC0169817A818B819C810E94D30969833F
:100C90007A838B839C8328EF37E840E65DEB6D8198
:100CA0007E818F8198850E949C0B9B01AC0169819C
:100CB0007A818B819C810E94D30969837A838B839B
:100CC0009C832CEA3DE041EA5AE3C301B2010E9451
:100CD0009C0BA50194010E949C0B9B01AC016981B6
:100CE0007A818B819C810E94D30969837A838B836B
:100CF0009C8328EC3FE84FE55AE3C701B6010E9408
:100D00009C0B2D813E814F8158850E949C0B9B013D
:100D1000AC0169817A818B819C810E94D3096983AE
:100D20007A838B839C8321EF3BE845E056EBC3013C
:100D3000B2010E949C0B2D813E814F8158850E94FB
:100D40009C0B9B01AC0169817A818B819C810E9403
:100D5000D3092B013C0120E030E040E551E4C5011E
:100D6000B4010E943F0A87FF88C020E030E040EADB
:100D700052E4C701B6010E94970B87FD7EC020E0B8
:100D800030E040EE52E4C701B6010E943F0A181657
:100D90000CF4BDC0A501940160E070E080E591E431
:100DA0000E94D20920E030E040E85EE30E949C0B04
:100DB0004B015C0120E030E04EEB52E4C701B6018C
:100DC0000E94D2096B017C0120E030E0A9010E9461
:100DD000970B18160CF048C0A701960160E070E070
:100DE00088E891E40E94D2092EE33DEE40E75DE3FE
:100DF0000E949C0B0E940F0C9B01AC01C501B40129
:100E00000E949C0B9B01AC01C301B2010E94D2095C
:100E10002B013C01011110C020E030E040E052E421
:100E2000C301B2010E94D20926E838E34EE05FE335
:100E30000E949C0B2B013C01C301B20128960FB606
:100E4000F894DEBF0FBECDBFDF91CF910F91FF9021
:100E5000EF90DF90CF90BF90AF909F908F907F905A
:100E60006F905F904F90089520E030E048E851E4A3
:100E7000C701B6010E94D309B7CF20E030E04AEAAB
:100E800052E4C501B4010E94970B18161CF620E02D
:100E900030E040EA52E4C701B6010E94970B87FD9B
:100EA000B9CF20E030E04EEA52E4C701B6010E941B
:100EB0003F0A18160CF4AECF20E030E04AEA52E4C4
:100EC000C501B4010E94D2092DEC3CEC4CEC5DE371
:100ED0000E949C0B4B015C01A701960160E070E051
:100EE0008EEA92E40E94D2092DEC3CEC4CE45EE3E5
:100EF0000E949C0B9B01AC01C501B4010E949C0B9C
:100F00009B01AC01C301B2010E94D30981CF20E053
:100F100030E04AEA52E4C501B4010E94970B18166A
:100F20000CF4BFCF77CF1F920F920FB60F92112400
:100F30002F933F934F935F936F937F938F939F93E1
:100F4000AF93BF93EF93FF9385E391E00E94DC01A1
:100F5000FF91EF91BF91AF919F918F917F916F9191
:100F60005F914F913F912F910F900FBE0F901F9067
:100F700018951F920F920FB60F9211242F938F93F3
:100F80009F93EF93FF93E0914501F091460180819B
:100F9000E0914B01F0914C0182FD1BC0908180914A
:100FA0004E018F5F8F7320914F01821741F0E091C6
:100FB0004E01F0E0EB5CFE4F958F80934E01FF9168
:100FC000EF919F918F912F910F900FBE0F901F90D7
:100FD00018958081F4CF1F920F920FB60F921124B3
:100FE0002F933F938F939F93AF93BF938091310142
:100FF00090913201A0913301B091340130912C01D4
:1010000023E0230F2D3758F50196A11DB11D209324
:101010002C018093310190933201A0933301B0935E
:10102000340180912D0190912E01A0912F01B0915A
:1010300030010196A11DB11D80932D0190932E01C9
:10104000A0932F01B0933001BF91AF919F918F91E9
:101050003F912F910F900FBE0F901F90189526E88B
:10106000230F0296A11DB11DD2CFE5E3F1E013825B
:10107000128288EE93E0A0E0B0E084839583A6839B
:10108000B78384E091E09183808385EC90E095873D
:10109000848784EC90E09787868780EC90E0918B42
:1010A000808B81EC90E0938B828B82EC90E0958B2F
:1010B000848B86EC90E0978B868B118E128E138E2C
:1010C000148EA2EDB1E082E015968C9315978BE01B
:1010D00016968C931697EFECF0E0E4911796EC934C
:1010E0001797EBEBF0E0E4911896EC93189740E833
:1010F0005EE360E070E01D964D935D936D937C938D
:1011000050970895789484B5826084BD84B58160D9
:1011100084BD85B5826085BD85B5816085BD8091C2
:101120006E00816080936E0010928100809181003A
:101130008260809381008091810081608093810032
:10114000809180008160809380008091B1008460F4
:101150008093B1008091B00081608093B000809155
:101160007A00846080937A0080917A008260809314
:101170007A0080917A00816080937A0080917A0071
:10118000806880937A001092C100E0914501F0914F
:10119000460182E08083E0914101F091420110829A
:1011A000E0914301F09144018FEC808310924D0156
:1011B000E0914901F0914A0186E08083E091470186
:1011C000F0914801808180618083E0914701F09136
:1011D0004801808188608083E0914701F091480157
:1011E000808180688083E0914701F091480180818F
:1011F0008F7D80838EE191E00E94500488E291E02F
:101200000E94500462E08091D7010E946B022FB7C8
:10121000F8948091310190913201A0913301B09105
:1012200034012FBF805D9740A109B1098093DB0194
:101230009093DC01A093DD01B093DE0187E38093FE
:10124000E401C0E0D0E064EF71E080E090E00E9453
:10125000C1020E94F302882351F08091D8018B30A3
:1012600030F08D3058F08551823008F473C0C12CB5
:10127000D12C20ECE22E2FE7F22E1EC06091D3017C
:1012800070E090E080E00E94E70A2DEC3CEC4CEC32
:101290005DE30E949C0B6B017C016091D20170E0C8
:1012A00090E080E00E94E70A9B01AC01C701B60113
:1012B0000E94D3096B017C010E94F302812C912CC6
:1012C00090ECA92E9FE7B92E882329F080E00E9498
:1012D0009C004B015C010E94F302882309F44CC07E
:1012E00081E00E949C002B013C01A7019601C701EF
:1012F000B6010E944F0C811110C0A5019401C501D7
:10130000B4010E944F0C811108C0A3019201C301D6
:10131000B2010E944F0C8823B1F102E710E0F801FE
:101320006491662341F085E391E00E94FE010F5F26
:101330001F4F892BA1F788E291E00E94500420976B
:1013400009F481CF0E94C801882309F47CCF0E9450
:10135000000079CF6091D2017091D3017627672781
:10136000762790E080E00E94E50A2DEC3CEC4CEC06
:101370005DE30E949C0B9ECF412C512C80EC682E8B
:101380008FE7782EB2CF42E0C501B4010E94A104DC
:1013900088E291E00E94500442E0C701B6010E9439
:1013A000A104C9CF5058BB27AA270E94EA090C9470
:1013B0005D0B0E944F0B38F00E94560B20F039F461
:1013C0009F3F19F426F40C944C0B0EF4E095E7FBC8
:1013D0000C94460BE92F0E946E0B58F3BA17620764
:1013E00073078407950720F079F4A6F50C94900B09
:1013F0000EF4E0950B2EBA2FA02D0B01B901900130
:101400000C01CA01A0011124FF27591B99F0593F73
:1014100050F4503E68F11A16F040A22F232F342FBB
:101420004427585FF3CF469537952795A795F04009
:101430005395C9F77EF41F16BA0B620B730B840B1E
:10144000BAF09150A1F0FF0FBB1F661F771F881FD6
:10145000C2F70EC0BA0F621F731F841F48F487952E
:1014600077956795B795F7959E3F08F0B0CF939520
:10147000880F08F09927EE0F9795879508950E9499
:10148000220B08F481E008950E94580A0C945D0B29
:101490000E94560B58F00E944F0B40F029F45F3F1A
:1014A00029F00C94460B51110C94910B0C944C0B9D
:1014B0000E946E0B68F39923B1F3552391F3951BAA
:1014C000550BBB27AA2762177307840738F09F5F65
:1014D0005F4F220F331F441FAA1FA9F335D00E2ED2
:1014E0003AF0E0E832D091505040E695001CCAF73F
:1014F0002BD0FE2F29D0660F771F881FBB1F261702
:1015000037074807AB07B0E809F0BB0B802DBF01D8
:10151000FF2793585F4F3AF09E3F510578F00C94A7
:10152000460B0C94910B5F3FE4F3983ED4F3869501
:1015300077956795B795F7959F5FC9F7880F911DC8
:101540009695879597F90895E1E0660F771F881FB4
:10155000BB1F621773078407BA0720F0621B730B67
:10156000840BBA0BEE1F88F7E09508950E94760B66
:1015700088F09F5798F0B92F9927B751B0F0E1F054
:10158000660F771F881F991F1AF0BA95C9F714C004
:10159000B13091F00E94900BB1E008950C94900B43
:1015A000672F782F8827B85F39F0B93FCCF386953D
:1015B00077956795B395D9F73EF49095809570959A
:1015C00061957F4F8F4F9F4F0895E89409C097FB17
:1015D0003EF490958095709561957F4F8F4F9F4F0A
:1015E0009923A9F0F92F96E9BB279395F69587954E
:1015F00077956795B795F111F8CFFAF4BB0F11F411
:1016000060FF1BC06F5F7F4F8F4F9F4F16C08823B7
:1016100011F096E911C0772321F09EE8872F762FED
:1016200005C0662371F096E8862F70E060E02AF02E
:101630009A95660F771F881FDAF7880F969587951A
:1016400097F90895990F0008550FAA0BE0E8FEEFEF
:1016500016161706E807F907C0F012161306E40776
:10166000F50798F0621B730B840B950B39F40A266F
:1016700061F0232B242B252B21F408950A2609F44D
:10168000A140A6958FEF811D811D089597F99F6751
:1016900080E870E060E008959FEF80EC08950024FA
:1016A0000A941616170618060906089500240A94C7
:1016B00012161306140605060895092E0394000C4D
:1016C00011F4882352F0BB0F40F4BF2B11F460FFDC
:1016D00004C06F5F7F4F8F4F9F4F089557FD905805
:1016E000440F551F59F05F3F71F04795880F97FBE6
:1016F000991F61F09F3F79F08795089512161306A0
:101700001406551FF2CF4695F1DF08C016161706CE
:101710001806991FF1CF8695710561050894089503
:10172000E894BB2766277727CB0197F908950E9495
:10173000220B08F48FEF08950E94AF0B0C945D0B01
:101740000E944F0B38F00E94560B20F0952311F0A9
:101750000C94460B0C944C0B11240C94910B0E948E
:101760006E0B70F3959FC1F3950F50E0551F629F6C
:10177000F001729FBB27F00DB11D639FAA27F00DEA
:10178000B11DAA1F649F6627B00DA11D661F829F11
:101790002227B00DA11D621F739FB00DA11D621FF6
:1017A000839FA00D611D221F749F3327A00D611D13
:1017B000231F849F600D211D822F762F6A2F1124F5
:1017C0009F5750409AF0F1F088234AF0EE0FFF1F28
:1017D000BB1F661F771F881F91505040A9F79E3F7F
:1017E000510580F00C94460B0C94910B5F3FE4F391
:1017F000983ED4F3869577956795B795F795E795D5
:101800009F5FC1F7FE2B880F911D9695879597F9DD
:10181000089519F416F40C944C0B0C94540C0E947B
:10182000760BB8F39923C9F3B6F39F57550B87FF8F
:101830000E94620C0024A0E640EA90018058569570
:10184000979528F4805C660F771F881F20F0261775
:101850003707480730F4621B730B840B20293129AA
:101860004A2BA69517940794202531254A2758F727
:10187000660F771F881F20F026173707480730F4B8
:10188000620B730B840B200D311D411DA09581F758
:10189000B901842F9158880F9695879508950E94D5
:1018A000220B880B990B08959F3F31F0915020F443
:1018B000879577956795B795880F911D969587952C
:1018C00097F9089591505040660F771F881FD2F7FF
:1018D0000895A1E21A2EAA1BBB1BFD010DC0AA1F71
:1018E000BB1FEE1FFF1FA217B307E407F50720F089
:1018F000A21BB30BE40BF50B661F771F881F991F04
:101900001A9469F760957095809590959B01AC014C
:10191000BD01CF010895EE0FFF1F0590F491E02D5A
:061920000994F894FFCFCA
:1019260000000000FE015E018B014B02BC019A0122
:10193600AE016E616E00696E66006F7666004448A1
:0C194600542046696E616C000D0A000020
:107E0000112484B714BE81FFF0D085E080938100F7
:107E100082E08093C00088E18093C10086E0809377
:107E2000C20080E18093C4008EE0C9D0259A86E02C
:107E300020E33CEF91E0309385002093840096BBD3
:107E4000B09BFECF1D9AA8958150A9F7CC24DD24C4
:107E500088248394B5E0AB2EA1E19A2EF3E0BF2EE7
:107E6000A2D0813461F49FD0082FAFD0023811F036
:107E7000013811F484E001C083E08DD089C08234E0
:107E800011F484E103C0853419F485E0A6D080C0E4
:107E9000853579F488D0E82EFF2485D0082F10E0AE
:107EA000102F00270E291F29000F111F8ED06801E7
:107EB0006FC0863521F484E090D080E0DECF843638
:107EC00009F040C070D06FD0082F6DD080E0C81688
:107ED00080E7D80618F4F601B7BEE895C0E0D1E017
:107EE00062D089930C17E1F7F0E0CF16F0E7DF06D8
:107EF00018F0F601B7BEE89568D007B600FCFDCFD4
:107F0000A601A0E0B1E02C9130E011968C91119780
:107F100090E0982F8827822B932B1296FA010C0160
:107F200087BEE89511244E5F5F4FF1E0A038BF0790
:107F300051F7F601A7BEE89507B600FCFDCF97BE46
:107F4000E89526C08437B1F42ED02DD0F82E2BD052
:107F50003CD0F601EF2C8F010F5F1F4F84911BD097
:107F6000EA94F801C1F70894C11CD11CFA94CF0C13
:107F7000D11C0EC0853739F428D08EE10CD085E9AC
:107F80000AD08FE07ACF813511F488E018D01DD067
:107F900080E101D065CF982F8091C00085FFFCCF94
:107FA0009093C60008958091C00087FFFCCF809118
:107FB000C00084FD01C0A8958091C6000895E0E648
:107FC000F0E098E1908380830895EDDF803219F02E
:107FD00088E0F5DFFFCF84E1DECF1F93182FE3DFCA
:107FE0001150E9F7F2DF1F91089580E0E8DFEE27F6
:047FF000FF270994CA
:027FFE00040479
:0400000300007E007B
:00000001FF
