:100000000C9472000C949A000C949A000C949A0030
:100010000C949A000C949A000C949A000C949A00F8
:100020000C949A000C949A000C949A000C949A00E8
:100030000C949A000C949A000C949A000C949A00D8
:100040000C94BC050C949A000C948A050C946405DD
:100050000C949A000C949A000C949A000C949A00B8
:100060000C949A000C949A000000000024002700D1
:100070002A0000000000250028002B004661696C62
:10008000656420746F207265616420746865204423
:1000900048542073656E736F7221000000000023C6
:1000A00000260029000404040404040404020202DB
:1000B00002020203030303030301020408102040A9
:1000C0008001020408102001020408102000000032
:1000D0000800020100000304070000000000000007
:1000E0000000060611241FBECFEFD8E0DEBFCDBF53
:1000F00011E0A0E0B1E0E0E9F3E102C005900D926B
:10010000A833B107D9F721E0A8E3B1E001C01D92FF
:10011000AC3EB207E1F710E0C2E7D0E004C021979F
:10012000FE010E94C009C137D107C9F70E943B06F2
:100130000C94C6090C940000AF92BF92CF92DF924C
:10014000EF92FF920F931F93CF93DF936C017B018C
:100150008B01040F151FEB015E01AE18BF08C0171D
:10016000D10759F06991D601ED91FC910190F08190
:10017000E02DC6010995892B79F7C501DF91CF9153
:100180001F910F91FF90EF90DF90CF90BF90AF90B5
:100190000895FC01538D448D252F30E0842F90E08D
:1001A000821B930B541710F0CF9608950197089572
:1001B000FC01918D828D981761F0A28DAE0FBF2F3B
:1001C000B11D5D968C91928D9F5F9F73928F90E091
:1001D00008958FEF9FEF0895FC01918D828D981700
:1001E00031F0828DE80FF11D858D90E008958FEF3D
:1001F0009FEF0895FC01918D228D892F90E0805C06
:100200009F4F821B91098F739927089581E491E094
:100210000E94FA0021E0892B09F420E0822F089542
:1002200080E090E0892B29F00E94060181110C9456
:1002300000000895FC01A48DA80FB92FB11DA35A89
:10024000BF4F2C91848D90E001968F739927848FF6
:10025000A689B7892C93A089B1898C918370806419
:100260008C93938D848D981306C00288F389E02DBA
:1002700080818F7D80830895EF92FF920F931F936B
:10028000CF93DF93EC0181E0888F9B8D8C8D981349
:100290001AC0E889F989808185FF15C09FB7F89455
:1002A000EE89FF896083E889F989808183708064A1
:1002B00080839FBF81E090E0DF91CF911F910F91EC
:1002C000FF90EF900895F62E0B8D10E00F5F1F4FFB
:1002D0000F731127E02E8C8D8E110CC00FB607FC0A
:1002E000FACFE889F989808185FFF5CFCE010E9498
:1002F0001A01F1CFEB8DEC0FFD2FF11DE35AFF4FEB
:10030000F0829FB7F8940B8FEA89FB898081806225
:10031000CFCFCF93DF93EC01888D8823B9F0AA89E2
:10032000BB89E889F9898C9185FD03C0808186FDB0
:100330000DC00FB607FCF7CF8C9185FFF2CF8081FF
:1003400085FFEDCFCE010E941A01E9CFDF91CF9159
:100350000895833081F028F4813099F08230A9F03B
:1003600008958730A9F08830C9F08430B1F48091C5
:1003700080008F7D03C0809180008F778093800004
:10038000089584B58F7784BD089584B58F7DFBCFA4
:100390008091B0008F778093B00008958091B00075
:1003A0008F7DF9CF1F93CF93DF93282F30E0F90192
:1003B000E353FF4F8491F901E754FF4FD491F901C2
:1003C000EB55FF4FC491CC23A9F0162F81110E9449
:1003D000A901EC2FF0E0EE0FFF1FEE58FF4FA591A3
:1003E000B4918FB7F894EC91111108C0D095DE2329
:1003F000DC938FBFDF91CF911F910895DE2BF8CF53
:10040000CF93DF9390E0FC01E754FF4F24918B558D
:100410009F4FFC0184918823D1F090E0880F991FB1
:10042000FC01E859FF4FA591B491FC01EE58FF4F34
:10043000C591D49161110EC09FB7F8948C91E22FB1
:10044000E0958E238C932881E223E8839FBFDF9180
:10045000CF9108958FB7F894EC91E22BEC938FBF76
:10046000F6CF3FB7F8948091390190913A01A0916D
:100470003B01B0913C0126B5A89B05C02F3F19F068
:100480000196A11DB11D3FBFBA2FA92F982F882714
:10049000BC01CD01620F711D811D911D42E0660FEF
:1004A000771F881F991F4A95D1F708958F929F92C1
:1004B000AF92BF92CF92DF92EF92FF920F931F9372
:1004C000CF93DF93C82F0E9431026B017C0128EE8D
:1004D000C20E23E0D21EE11CF11C812C912C540190
:1004E000D0E02091E40130E0F901E353FF4F849123
:1004F000F901E754FF4F1491F901EB55FF4F0491B7
:100500000023A9F181110E94A901E02FF0E0EE0F74
:10051000FF1FE556FF4FA591B491EC911E2331E0EA
:1005200020E009F430E0832F922FC817D90781F417
:100530008FEF881A980AA80AB80A0E9431026C152F
:100540007D058E059F0508F4CCCF812C912C54019C
:10055000C501B401DF91CF911F910F91FF90EF90F2
:10056000DF90CF90BF90AF909F908F90089590E0D4
:1005700080E0DBCF8F929F92AF92BF92CF92DF92BB
:10058000EF92FF924B015C010E9431026B017C01F2
:100590000E9431026C197D098E099F09683E7340E3
:1005A00081059105A8F321E0821A9108A108B108FC
:1005B00088EEC80E83E0D81EE11CF11C8114910462
:1005C000A104B10429F7FF90EF90DF90CF90BF9086
:1005D000AF909F908F900895CF92DF92EF92FF920D
:1005E000CF93DF932FB7F89480913D0190913E0116
:1005F000A0913F01B09140012FBF4091E601509181
:10060000E7016091E8017091E90184179507A60759
:10061000B70740F41092E6011092E7011092E8014A
:100620001092E9012091EA0121111AC04091E601DE
:100630005091E7016091E8017091E901841B950BED
:10064000A60BB70B803D9740A105B10548F48091FA
:10065000EB01DF91CF91FF90EF90DF90CF90089565
:100660001092EA012FB7F89480913D0190913E01DC
:10067000A0913F01B09140012FBF8093E60190937C
:10068000E701A093E801B093E9011092E201109212
:10069000E1011092E0011092DF011092DE0161E0B1
:1006A0008091E4010E94D2016AEF70E080E090E066
:1006B0000E94BA0261E08091E4010E94000260E0C1
:1006C0008091E4010E94D20164E170E080E090E05A
:1006D0000E94BA02F89461E08091E4010E94D20184
:1006E0008BE990E00197F1F760E08091E4010E94CE
:1006F000000283E290E00197F1F780E00E94560249
:10070000672B682B692B21F41092EB0180E0A1CFBD
:1007100081E00E945602672B682B692BA9F3D0E079
:10072000C0E080E00E9456026B017C01C114D1043C
:10073000E104F10449F381E00E945602611571055C
:100740008105910509F3FE0123E0F595E7952A95CA
:10075000E1F7E252FE4F2081220FC616D706E806C7
:10076000F90608F120832196C832D105D1F6789494
:100770004091E2012091DE018091DF01280F3327B3
:10078000331F8091E001280F311D8091E101820F1C
:10079000932F911D99274817190609F0B5CF81E0CD
:1007A0008093EB0156CF822F81608083DCCFCF9284
:1007B000DF92EF92FF92CF93DF93C82F0E94EC025B
:1007C000882341F08091E5018B3049F018F0855184
:1007D000823038F160E070E080EC9FE71BC06091F0
:1007E000E00170E090E080E00E947508CC2391F079
:1007F00020E030E040E151E40E942C0920E030E0AC
:1008000040EA50E40E94D40720E030E040E052E4A7
:100810000E946307DF91CF91FF90EF90DF90CF9020
:100820000895D091E0016D2F6F7770E090E080E047
:100830000E94770820E030E040E853E40E942C0951
:100840006B017C016091E10170E090E080E00E942A
:100850007708A70196010E94630720E030E040E29C
:1008600051E40E94D407D7FFC1CF9058BFCFFC01FD
:1008700001900020E9F73197AF01481B590BBC01EB
:1008800081E491E00C949C008F929F92AF92BF9272
:100890000F931F93CF93DF93CDB7DEB7A1970FB61A
:1008A000F894DEBF0FBECDBF19A2423008F44AE073
:1008B0008E010F5D1F4F842E912CB12CA12CA50110
:1008C00094010E949E09E62FB901CA01EA30F4F4AE
:1008D000E05DD801EE938D01232B242B252B79F796
:1008E00090E080E0109719F0CD010E943704A196A6
:1008F0000FB6F894DEBF0FBECDBFDF91CF911F9131
:100900000F91BF90AF909F908F900895E95CE1CFD9
:100910004F925F926F927F928F929F92AF92BF920F
:10092000CF92DF92EF92FF920F931F93CF936B01C1
:100930007C01742EAC019B010E949909882399F0D7
:1009400082E191E0CF911F910F91FF90EF90DF90A6
:10095000CF90BF90AF909F908F907F906F905F905F
:100960004F900C94370446015701E894B7F82FEFE5
:100970003FEF4FE75FE7C501B4010E94990981117C
:100980000DC02FEF3FEF4FE75FE7C501B4010E94B5
:10099000CF0718161CF486E191E0D4CF2FEF3FEF7C
:1009A0004FE75FE4C701B6010E94270918161CF43F
:1009B0008AE191E0C7CF2FEF3FEF4FE75FECC70130
:1009C000B6010E94CF0787FDF3CF20E030E0A901F8
:1009D000C701B6010E94CF0710E000E087FF0AC000
:1009E0006DE281E491E00E943C018C01F7FAF09401
:1009F000F7F8F094C0E060E070E080E09FE37C16E0
:100A000041F020E030E040E251E40E94D407CF5FA3
:100A1000F6CFA70196010E9463072B013C010E94BB
:100A200046084B015C014AE00E9444047C01E00E50
:100A3000F11ECC23C1F1C501B4010E9475089B01D0
:100A4000AC01C301B2010E9462074B015C016EE27E
:100A500081E491E00E943C01E80EF91EC15018F1BA
:100A600020E030E040E251E4C501B4010E942C09CD
:100A70002B013C010E9446084B01B12CA12C4AE0FD
:100A8000C501B4010E944404E80EF91EC501B40179
:100A90000E9475089B01AC01C301B2010E9462076C
:100AA0004B015C01DBCFC701CF911F910F91FF90EC
:100AB000EF90DF90CF90BF90AF909F908F907F90FE
:100AC0006F905F904F9008951F920F920FB60F9204
:100AD00011242F933F934F935F936F937F938F9343
:100AE0009F93AF93BF93EF93FF9381E491E00E94B4
:100AF0001A01FF91EF91BF91AF919F918F917F91DB
:100B00006F915F914F913F912F910F900FBE0F907A
:100B10001F9018951F920F920FB60F9211242F93CA
:100B20008F939F93EF93FF93E0915101F0915201C6
:100B30008081E0915701F091580182FD1BC09081A6
:100B400080915A018F5F8F7320915B01821741F072
:100B5000E0915A01F0E0EF5BFE4F958F80935A01D0
:100B6000FF91EF919F918F912F910F900FBE0F905A
:100B70001F9018958081F4CF1F920F920FB60F929D
:100B800011242F933F938F939F93AF93BF938091A3
:100B90003D0190913E01A0913F01B0914001309103
:100BA000380123E0230F2D3758F50196A11DB11D03
:100BB0002093380180933D0190933E01A0933F0123
:100BC000B09340018091390190913A01A0913B018D
:100BD000B0913C010196A11DB11D80933901909304
:100BE0003A01A0933B01B0933C01BF91AF919F911B
:100BF0008F913F912F910F900FBE0F901F901895DE
:100C000026E8230F0296A11DB11DD2CFE1E4F1E049
:100C10001382128288EE93E0A0E0B0E08483958393
:100C2000A683B78384E091E09183808385EC90E094
:100C30009587848784EC90E09787868780EC90E0A6
:100C4000918B808B81EC90E0938B828B82EC90E097
:100C5000958B848B86EC90E0978B868B118E128E11
:100C6000138E148EEEEDF1E082E086838BE08783B5
:100C700081E084870895789484B5826084BD84B5CA
:100C8000816084BD85B5826085BD85B5816085BD87
:100C900080916E00816080936E001092810080913F
:100CA00081008260809381008091810081608093C7
:100CB0008100809180008160809380008091B100EC
:100CC00084608093B1008091B00081608093B00017
:100CD00080917A00846080937A0080917A008260AB
:100CE00080937A0080917A00816080937A0080916D
:100CF0007A00806880937A001092C100E0915101DF
:100D0000F091520182E08083E0914D01F0914E011B
:100D10001082E0914F01F09150018FEC808310928E
:100D20005901E0915501F091560186E08083E091F0
:100D30005301F0915401808180618083E0915301DF
:100D4000F0915401808188608083E0915301F0919B
:100D50005401808180688083E0915301F0915401B7
:100D600080818F7D80838EE191E00E94370485E34E
:100D700091E00E94370460E08091E4010E9400024B
:100D800061E08091E4010E94D2011092E60110928C
:100D9000E7011092E8011092E901C0E0D0E068EEAE
:100DA00073E080E090E00E94BA020E94EC02882387
:100DB00049F08091E5018B3061F020F0855182305F
:100DC00008F450C0C12CD12C80ECE82E8FE7F82E0F
:100DD00009C06091DE0170E090E080E00E9475083B
:100DE0006B017C0180E00E94D7034B015C0181E034
:100DF0000E94D7032B013C01A7019601C701B60150
:100E00000E949909811111C0A5019401C501B40185
:100E10000E949909811109C0A3019201C301B20185
:100E20000E949909882309F43EC00CE710E0F801FC
:100E30006491662341F081E491E00E943C010F5FE0
:100E40001F4F892BA1F785E391E00E94370420977B
:100E500009F4A5CF0E940601882309F4A0CF0E94BF
:100E600000009DCF6091DE0170E090E080E00E9484
:100E7000750820E030E040E853E40E942C096B0143
:100E80007C016091DF0170E090E080E00E947708D3
:100E9000A70196010E94630720E030E040E251E4A0
:100EA0000E94D4079DCF42E0C501B4010E9488048E
:100EB00085E391E00E94370442E0C701B6010E9439
:100EC0008804C1CF5058BB27AA270E947A070C94E8
:100ED000ED080E94DF0838F00E94E60820F039F49F
:100EE0009F3F19F426F40C94DC080EF4E095E7FB20
:100EF0000C94D608E92F0E94FE0858F3BA1762072F
:100F000073078407950720F079F4A6F50C9420095F
:100F10000EF4E0950B2EBA2FA02D0B01B901900114
:100F20000C01CA01A0011124FF27591B99F0593F58
:100F300050F4503E68F11A16F040A22F232F342FA0
:100F40004427585FF3CF469537952795A795F040EE
:100F50005395C9F77EF41F16BA0B620B730B840B03
:100F6000BAF09150A1F0FF0FBB1F661F771F881FBB
:100F7000C2F70EC0BA0F621F731F841F48F4879513
:100F800077956795B795F7959E3F08F0B0CF939505
:100F9000880F08F09927EE0F9795879508950E947E
:100FA000B20808F481E008950E94E8070C94ED0867
:100FB0000E94E60858F00E94DF0840F029F45F3FE5
:100FC00029F00C94D60851110C9421090C94DC08DA
:100FD0000E94FE0868F39923B1F3552391F3951B02
:100FE000550BBB27AA2762177307840738F09F5F4A
:100FF0005F4F220F331F441FAA1FA9F335D00E2EB7
:101000003AF0E0E832D091505040E695001CCAF723
:101010002BD0FE2F29D0660F771F881FBB1F2617E6
:1010200037074807AB07B0E809F0BB0B802DBF01BD
:10103000FF2793585F4F3AF09E3F510578F00C948C
:10104000D6080C9421095F3FE4F3983ED4F38695CB
:1010500077956795B795F7959F5FC9F7880F911DAD
:101060009695879597F90895E1E0660F771F881F99
:10107000BB1F621773078407BA0720F0621B730B4C
:10108000840BBA0BEE1F88F7E09508950E940609BD
:1010900088F09F5798F0B92F9927B751B0F0E1F039
:1010A000660F771F881F991F1AF0BA95C9F714C0E9
:1010B000B13091F00E942009B1E008950C9420090C
:1010C000672F782F8827B85F39F0B93FCCF3869522
:1010D00077956795B395D9F73EF49095809570957F
:1010E00061957F4F8F4F9F4F0895E89409C097FBFC
:1010F0003EF490958095709561957F4F8F4F9F4FEF
:101100009923A9F0F92F96E9BB279395F695879532
:1011100077956795B795F111F8CFFAF4BB0F11F4F5
:1011200060FF1BC06F5F7F4F8F4F9F4F16C088239C
:1011300011F096E911C0772321F09EE8872F762FD2
:1011400005C0662371F096E8862F70E060E02AF013
:101150009A95660F771F881FDAF7880F96958795FF
:1011600097F90895990F0008550FAA0BE0E8FEEFD4
:1011700016161706E807F907C0F012161306E4075B
:10118000F50798F0621B730B840B950B39F40A2654
:1011900061F0232B242B252B21F408950A2609F432
:1011A000A140A6958FEF811D811D089597F99F6736
:1011B00080E870E060E008959FEF80EC08950024DF
:1011C0000A941616170618060906089500240A94AC
:1011D00012161306140605060895092E0394000C32
:1011E00011F4882352F0BB0F40F4BF2B11F460FFC1
:1011F00004C06F5F7F4F8F4F9F4F089557FD9058EA
:10120000440F551F59F05F3F71F04795880F97FBCA
:10121000991F61F09F3F79F0879508951216130684
:101220001406551FF2CF4695F1DF08C016161706B3
:101230001806991FF1CF86957105610508940895E8
:10124000E894BB2766277727CB0197F908950E947A
:10125000B20808F48FEF08950E943F090C94ED083E
:101260000E94DF0838F00E94E60820F0952311F074
:101270000C94D6080C94DC0811240C9421090E94CB
:10128000FE0870F3959FC1F3950F50E0551F629FC4
:10129000F001729FBB27F00DB11D639FAA27F00DCF
:1012A000B11DAA1F649F6627B00DA11D661F829FF6
:1012B0002227B00DA11D621F739FB00DA11D621FDB
:1012C000839FA00D611D221F749F3327A00D611DF8
:1012D000231F849F600D211D822F762F6A2F1124DA
:1012E0009F5750409AF0F1F088234AF0EE0FFF1F0D
:1012F000BB1F661F771F881F91505040A9F79E3F64
:10130000510580F00C94D6080C9421095F3FE4F35A
:10131000983ED4F3869577956795B795F795E795B9
:101320009F5FC1F7FE2B880F911D9695879597F9C2
:1013300008950E94B208880B990B0895A1E21A2E15
:10134000AA1BBB1BFD010DC0AA1FBB1FEE1FFF1F69
:10135000A217B307E407F50720F0A21BB30BE40BB9
:10136000F50B661F771F881F991F1A9469F7609500
:101370007095809590959B01AC01BD01CF010895BA
:10138000EE0FFF1F0590F491E02D0994F894FFCF24
:10139000000000003C019C00C9008901FA00D8004F
:1013A000EC006E616E00696E66006F7666004772D3
:1013B0006F757031315F4C6162315F536563746981
:0813C0006F6E3031000D0A00D0
:00000001FF
